S01300004C465F41746D65676133322E737265636C
S11300000C942A000C9447000C9447000C9447006D
S11300100C9447000C9447000C9447000C94470040
S11300200C9447000C9447000C94AF000C944700C8
S11300300C9447000C94C3000C9447000C944700A4
S11300400C9447000C9447000C9447000C94470010
S11300500C94470011241FBECFE5D8E0DEBFCDBF0E
S113006010E0A0E6B0E0E6E0F9E002C005900D92F1
S1130070A83AB107D9F720E0A8EAB0E001C01D9280
S1130080A23CB207E1F70E949A000C9481040C94FC
S113009000008FE381BB93989298969897989498D0
S11300A0959880EF87BB8FE084BB08953E9A3D9A74
S11300B0379A86B1876086B908958FB5806A8FBDF7
S11300C08FB589608FBD8EB581608EBD83B7886022
S11300D083BF83B7856083BF8DE78CBF89B7826098
S11300E089BF089578940E9449000E9456000E9496
S11300F05D000895892BD9F00E94FA010E94420202
S11301000E944A019093AD008093AC000E94940138
S113011060916000709161002091600030916100F5
S1130120681B790B820F931F0E94C10108950E94DE
S1130130BC0108950E9472000E949A028091AA0054
S11301409091AB00892BD1F31092AB001092AA00CE
S11301508091A8009091A9000E947A00EFCF1F928D
S11301600F920FB60F9211248F939F9381E090E02A
S11301709093AB008093AA009F918F910F900FBE34
S11301800F901F9018951F920F920FB60F92112483
S11301902F933F934F935F936F937F938F939F938B
S11301A0AF93BF93EF93FF938CB18CB9833331F149
S11301B028F4813349F0823391F05BC0843391F1A8
S11301C0853309F443C055C08091A8009091A900DB
S11301D021E082279093A9008093A8004AC00E943E
S11301E0200286E890E00E94AB0280916400909126
S11301F065000E94BA020E9470023BC080916200B6
S1130200909163000196909363008093620087E964
S113021090E00E94AB0280916200909163000E9482
S1130220BA0227C08091B0009091B10001969093DA
S1130230B1008093B0008DE990E00E94AB02809100
S1130240B0009091B1000E94BA0213C08091600086
S1130250909161000596909361008093600083EA19
S113026090E00E94AB0280916000909161000E9436
S1130270BA02FF91EF91BF91AF919F918F917F91BE
S11302806F915F914F913F912F910F900FBE0F90FF
S11302901F901895EF92FF920F931F93CF93DF93C4
S11302A0CDB7DEB760970FB6F894DEBF0FBECDBFF3
S11302B080E1E6E7F0E0DE01119601900D928A9567
S11302C0E1F7E2EBF0E0DE0111960F2EF2ECEF2EF7
S11302D0F0E0FF2EF02D60E070E080E090E001910E
S11302E011912D913D91029FA001039F500D129FEA
S11302F0500D1124840F951F620F731FEE15FF0517
S113030071F7161617061CF40E941204CB016096AE
S11303100FB6F894DEBF0FBECDBFDF91CF911F9112
S11303200F91FF90EF9008952091AC003091AD00B3
S11303308091AE009091AF00F901E81BF90B309366
S1130340AF002093AE0080916200909163006091B1
S1130350B0007091B100289FA001299F500D389FD3
S1130360500D1124E69FC001E79F900DF69F900D5C
S11303701124840F951F08959398929896989798AE
S1130380089599234CF08F3F910519F014F08FEFE5
S113039090E0939A929808C082302FEF920714F05D
S11303A081E09FEF9398929A77234CF06F3F710509
S11303B019F014F06FEF70E0969A979808C06230C5
S11303C02FEF720714F061E07FEF9698979A9C01E3
S11303D0992324F422273327281B390B3BBD2ABD3C
S11303E0CB01992324F488279927861B970B99BD61
S11303F088BD0895A6E6B0E0E2EBF0E042EC50E000
S113040061E070E087B1807E87B997B18C911296D4
S1130410892B87B9369A3699FECF85B1209164002D
S11304203091650090E0281739071CF471836083CC
S113043002C0118210823296E417F50719F7089565
S113044087B187B9369A3699FECF65B170E087B126
S113045087B9369A3699FECF85B1680F711D072E7C
S1130460000C880B990B0E94190320E030E040E057
S11304705FE30E947D030E94E10270936500609334
S11304806400089588B3807F88BB85B38F7085BB73
S1130490E2EBF0E080E090E08430910574F465B321
S11304A020813181AC014C5F5F4F02C0220F331FAA
S11304B04A95E2F7262B25BB0DC068B32081318114
S11304C0AC014450510902C0220F331F4A95E2F790
S11304D0262B28BB0196329688309105E9F60895BB
S11304E088B3807F88BB85B38F7085BB23E030E001
S11304F088B38F6088BB85B3806F85BB4FEF83EC77
S113050099E0415080409040E1F700C0000088B37A
S1130510807F88BB85B38F7085BB4FEF83EC99E0F8
S1130520415080409040E1F700C000002150310963
S1130530F9F608958AB188698AB980B5866880BD5C
S113054087E689B910BC08959BB190729BB9992331
S1130550D9F38CB90895CF93DF93EC018881882374
S113056031F021960E94A40289918111FBCFDF9181
S1130570CF9108950F931F93CF93DF93CDB7DEB739
S11305802A970FB6F894DEBF0FBECDBF4AE050E005
S11305908E010F5F1F4FB8010E944104802F0E94FB
S11305A0A40260E270E0C8010E943A042A960FB6E1
S11305B0F894DEBF0FBECDBFDF91CF911F910F9195
S11305C008950E94E8026894B1110C947703089589
S11305D00E945C0388F09F5798F0B92F9927B75170
S11305E0B0F0E1F0660F771F881F991F1AF0BA95D3
S11305F0C9F714C0B13091F00E947603B1E00895B8
S11306000C947603672F782F8827B85F39F0B93FA9
S1130610CCF3869577956795B395D9F73EF4909585
S11306208095709561957F4F8F4F9F4F0895E89403
S113063009C097FB3EF490958095709561957F4F26
S11306408F4F9F4F9923A9F0F92F96E9BB279395D4
S1130650F695879577956795B795F111F8CFFAF4E4
S1130660BB0F11F460FF1BC06F5F7F4F8F4F9F4F15
S113067016C0882311F096E911C0772321F09EE873
S1130680872F762F05C0662371F096E8862F70E0D9
S113069060E02AF09A95660F771F881FDAF7880FB3
S11306A09695879597F9089557FD9058440F551FCF
S11306B059F05F3F71F04795880F97FB991F61F0E0
S11306C09F3F79F087950895121613061406551F57
S11306D0F2CF4695F1DF08C0161617061806991FC3
S11306E0F1CF86957105610508940895E894BB27B8
S11306F066277727CB0197F908950E9490030C94FD
S113070001040E94F30338F00E94FA0320F09523B9
S113071011F00C94EA030C94F00311240C94770365
S11307200E94540370F3959FC1F3950F50E0551F39
S1130730629FF001729FBB27F00DB11D639FAA2732
S1130740F00DB11DAA1F649F6627B00DA11D661F81
S1130750829F2227B00DA11D621F739FB00DA11DA2
S1130760621F839FA00D611D221F749F3327A00D5C
S1130770611D231F849F600D211D822F762F6A2FF8
S113078011249F5750409AF0F1F088234AF0EE0F5D
S1130790FF1FBB1F661F771F881F91505040A9F78A
S11307A09E3F510580F00C94EA030C9477035F3F5D
S11307B0E4F3983ED4F3869577956795B795F795C6
S11307C0E7959F5FC1F7FE2B880F911D969587953E
S11307D097F9089597F99F6780E870E060E00895BD
S11307E09FEF80EC089500240A9416161706180645
S11307F00906089500240A94121613061406050621
S11308000895092E0394000C11F4882352F0BB0FB1
S113081040F4BF2B11F460FF04C06F5F7F4F8F4F14
S11308209F4F089597FB072E16F4009407D077FD89
S113083009D00E94260407FC05D03EF490958195CA
S11308409F4F0895709561957F4F0895AA1BBB1B18
S113085051E107C0AA1FBB1FA617B70710F0A61BBC
S1130860B70B881F991F5A95A9F780959095BC01DD
S1130870CD010895FB01DC0101900D920020E1F708
S113088008954532510520F4423010F00C944C0484
S1130890FB011082CB010895BB274A3031F4992320
S11308A022F4BDE2909581959F4F0C945804BB2788
S11308B0FB015527AA27880F991FAA1FA41710F018
S11308C0A41B83955051B9F7A05DAA3308F0A95D24
S11308D0A193009779F7B111B1931192CB010C94C4
S11308E07104DC01FC01672F71917723E1F73297E2
S11308F004C07C916D9370836291AE17BF07C8F3F7
S10909000895F894FFCFF6
S113090664000500960007000600050004000300C5
S1130916020001000000F4FFF8FFFCFFFFFF0100E6
S1130926040008000C000A53656E736F727320701E
S11309366F696E743A20000A4B703A20000A4B64C1
S10B09463A20000A563A200091
S90300A854
