:100000000C9432000C944F000C944F000C944F0051
:100010000C944F000C944F000C944F000C944F0024
:100020000C944F000C944F000C94AF000C944F00B4
:100030000C944F000C94BE000C944F000C944F0095
:100040000C944F000C944F000C944F000C944F00F4
:100050000C944F00DD00E400F30007011B012F01A9
:100060004301570111241FBECFE5D8E0DEBFCDBF4D
:1000700010E0A0E6B0E0E4E7F9E002C005900D92E0
:10008000AA3AB107D9F720E0AAEAB0E001C01D9270
:10009000A03CB207E1F70E949F000C94B8040C94B6
:1000A00000008FE381BB93989298969897989498C4
:1000B000959880EF87BB8FE084BB08953E9A3D9A68
:1000C000379A86B1876086B908958FB5806A8FBDEB
:1000D0008FB589608FBD8EB581608EBD83B7886016
:1000E00083BF83B7856083BF8DE78CBF89B782608C
:1000F00089BF089578940E9451000E945E000E947A
:1001000065000895892BC1F00E942B020E947302A2
:100110000E947B019093AD008093AC000E94C501CA
:100120002091600030916100B901681B790B820F4A
:10013000931F0E94F20108950E94ED0108950E940C
:100140007A000E94CB028091AB008823E1F31092E9
:10015000AB008091AA0090E00E948200F4CF1F9231
:100160000F920FB60F9211248F9381E08093AB0012
:100170008F910F900FBE0F901F9018951F920F92A6
:100180000FB60F9211242F933F934F935F936F936A
:100190007F938F939F93AF93BF93EF93FF93ECB1B4
:1001A000ECB98E2F90E0FC01F197E830F10508F0F2
:1001B00091C0E65DFF4F0C9457049091AA0081E036
:1001C00089278093AA0086C00E94510288E890E0A7
:1001D0000E94DC0280916600909167000E94EB0211
:1001E0000E94A10277C08091640090916500019601
:1001F000909365008093640089E990E00E94DC029E
:1002000080916400909165000E94EB0263C0809130
:10021000640090916500019790936500809364005D
:1002200089E990E00E94DC02809164009091650071
:100230000E94EB024FC08091620090916300019692
:1002400090936300809362008FE990E00E94DC024B
:1002500080916200909163000E94EB023BC080910C
:100260006200909163000197909363008093620015
:100270008FE990E00E94DC0280916200909163001F
:100280000E94EB0227C0809160009091610005966A
:10029000909361008093600085EA90E00E94DC0208
:1002A00080916000909161000E94EB0213C08091E8
:1002B00060009091610005979093610080936000C9
:1002C00085EA90E00E94DC028091600090916100DC
:1002D0000E94EB02FF91EF91BF91AF919F918F919F
:1002E0007F916F915F914F913F912F910F900FBE32
:1002F0000F901F901895EF92FF920F931F93CF933B
:10030000DF93CDB7DEB760970FB6F894DEBF0FBEB0
:10031000CDBF80E1E8E7F0E0DE01119601900D929B
:100320008A95E1F7E0EBF0E0DE0111960F2EF0EC9C
:10033000EF2EF0E0FF2EF02D60E070E080E090E026
:10034000019111912D913D91029FA001039F500DAC
:10035000129F500D1124840F951F620F731FEE150D
:10036000FF0571F7161617061CF40E944304CB0113
:1003700060960FB6F894DEBF0FBECDBFDF91CF9170
:100380001F910F91FF90EF9008952091AC00309154
:10039000AD008091AE009091AF00B901681B790B60
:1003A0003093AF002093AE0080916400909165007F
:1003B000289FA001299F500D389F500D1124209196
:1003C000620030916300629FC001639F900D729F35
:1003D000900D1124840F951F0895939892989698E4
:1003E0009798089599234CF08F3F910519F014F0D8
:1003F0008FEF90E0939A929808C082302FEF920787
:1004000014F081E09FEF9398929A77234CF06F3F1E
:10041000710519F014F06FEF70E0969A979808C084
:1004200062302FEF720714F061E07FEF9698979A91
:100430009C01992324F422273327281B390B3BBD29
:100440002ABDCB01992324F488279927861B970B73
:1004500099BD88BD0895A8E6B0E0E0EBF0E040EC7F
:1004600050E061E070E087B1807E87B997B18C91F0
:100470001296892B87B9369A3699FECF85B190E0CE
:100480002091660030916700281739071CF47183AA
:10049000608302C0118210823296E417F50719F7C3
:1004A000089587B187B9369A3699FECF65B170E065
:1004B00087B187B9369A3699FECF85B1680F711D1D
:1004C000072E000C880B990B0E944A0320E030E0B5
:1004D00040E05FE30E94AE030E9412037093670046
:1004E00060936600089588B3807F88BB85B38F7062
:1004F00085BBE0EBF0E080E090E08430910574F49F
:1005000065B320813181AC014C5F5F4F02C0220F87
:10051000331F4A95E2F7262B25BB0DC068B3208117
:100520003181AC014450510902C0220F331F4A955A
:10053000E2F7262B28BB0196329688309105E9F622
:10054000089588B3807F88BB85B38F7085BB23E017
:1005500030E088B38F6088BB85B3806F85BB4FEF79
:1005600083EC99E0415080409040E1F700C00000EA
:1005700088B3807F88BB85B38F7085BB4FEF83ECDA
:1005800099E0415080409040E1F700C000002150C8
:100590003109F9F608958AB188698AB980B5866803
:1005A00080BD87E689B910BC08959BB190729BB954
:1005B0009923D9F38CB90895CF93DF93EC01888107
:1005C000882331F021960E94D50289918111FBCFB9
:1005D000DF91CF910895CF93DF93CDB7DEB72A9700
:1005E0000FB6F894DEBF0FBECDBF4AE050E0BE01AB
:1005F0006F5F7F4F0E947804CE0101960E94DC025B
:1006000060E270E0CE0101960E9471048AE00E94CF
:10061000D5022A960FB6F894DEBF0FBECDBFDF918C
:10062000CF9108950E9419036894B1110C94A80306
:1006300008950E948D0388F09F5798F0B92F99274D
:10064000B751B0F0E1F0660F771F881F991F1AF0BD
:10065000BA95C9F714C0B13091F00E94A703B1E078
:1006600008950C94A703672F782F8827B85F39F077
:10067000B93FCCF3869577956795B395D9F73EF456
:1006800090958095709561957F4F8F4F9F4F0895FE
:10069000E89409C097FB3EF490958095709561951C
:1006A0007F4F8F4F9F4F9923A9F0F92F96E9BB27D2
:1006B0009395F695879577956795B795F111F8CF4E
:1006C000FAF4BB0F11F460FF1BC06F5F7F4F8F4FB9
:1006D0009F4F16C0882311F096E911C0772321F0AF
:1006E0009EE8872F762F05C0662371F096E8862F47
:1006F00070E060E02AF09A95660F771F881FDAF79E
:10070000880F9695879597F9089557FD9058440F4F
:10071000551F59F05F3F71F04795880F97FB991F60
:1007200061F09F3F79F0879508951216130614061D
:10073000551FF2CF4695F1DF08C0161617061806AA
:10074000991FF1CF86957105610508940895E89485
:10075000BB2766277727CB0197F908950E94C1032D
:100760000C9432040E94240438F00E942B0420F0E0
:10077000952311F00C941B040C94210411240C9467
:10078000A8030E94850370F3959FC1F3950F50E075
:10079000551F629FF001729FBB27F00DB11D639F33
:1007A000AA27F00DB11DAA1F649F6627B00DA11DD9
:1007B000661F829F2227B00DA11D621F739FB00D7F
:1007C000A11D621F839FA00D611D221F749F3327EF
:1007D000A00D611D231F849F600D211D822F762F88
:1007E0006A2F11249F5750409AF0F1F088234AF065
:1007F000EE0FFF1FBB1F661F771F881F91505040D1
:10080000A9F79E3F510580F00C941B040C94A8039B
:100810005F3FE4F3983ED4F3869577956795B79557
:10082000F795E7959F5FC1F7FE2B880F911D969571
:10083000879597F9089597F99F6780E870E060E0E1
:1008400008959FEF80EC089500240A941616170669
:1008500018060906089500240A94121613061406B1
:1008600005060895092E0394000C11F4882352F014
:10087000BB0F40F4BF2B11F460FF04C06F5F7F4FCC
:100880008F4F9F4F089597FB072E16F4009407D0C3
:1008900077FD09D00E945D0407FC05D03EF49095D9
:1008A00081959F4F0895709561957F4F0895EE0F44
:1008B000FF1F0590F491E02D0994AA1BBB1B51E189
:1008C00007C0AA1FBB1FA617B70710F0A61BB70BC0
:1008D000881F991F5A95A9F780959095BC01CD0165
:1008E0000895FB01DC0101900D920020E1F70895CD
:1008F0004532510520F4423010F00C948304FB0182
:100900001082CB010895BB274A3031F4992322F499
:10091000BDE2909581959F4F0C948F04BB27FB01FE
:100920005527AA27880F991FAA1FA41710F0A41BE8
:1009300083955051B9F7A05DAA3308F0A95DA19342
:10094000009779F7B111B1931192CB010C94A804DF
:10095000DC01FC01672F71917723E1F7329704C026
:100960007C916D9370836291AE17BF07C8F30895B1
:04097000F894FFCF29
:10097400500008000300960007000600050004006C
:100984000300020001000000EEFFF8FFFCFF00007E
:1009940000000400080012000A53656E736F72733E
:1009A40020706F696E743A20000A4B703A20000A76
:0A09B4004B643A20000A563A200076
:04000005008000AACD
:00000001FF
